{
  "_format": "hh-sol-artifact-1",
  "contractName": "FlightInsurance",
  "sourceName": "contracts/FlightInsurance.sol",
  "abi": [
    {
      "inputs": [
        {
          "internalType": "address",
          "name": "_tokenAddress",
          "type": "address"
        }
      ],
      "stateMutability": "nonpayable",
      "type": "constructor"
    },
    {
      "inputs": [
        {
          "internalType": "address",
          "name": "owner",
          "type": "address"
        }
      ],
      "name": "OwnableInvalidOwner",
      "type": "error"
    },
    {
      "inputs": [
        {
          "internalType": "address",
          "name": "account",
          "type": "address"
        }
      ],
      "name": "OwnableUnauthorizedAccount",
      "type": "error"
    },
    {
      "inputs": [],
      "name": "ReentrancyGuardReentrantCall",
      "type": "error"
    },
    {
      "anonymous": false,
      "inputs": [
        {
          "indexed": false,
          "internalType": "uint256",
          "name": "policyId",
          "type": "uint256"
        },
        {
          "indexed": false,
          "internalType": "string",
          "name": "status",
          "type": "string"
        },
        {
          "indexed": false,
          "internalType": "uint256",
          "name": "amount",
          "type": "uint256"
        }
      ],
      "name": "ClaimProcessed",
      "type": "event"
    },
    {
      "anonymous": false,
      "inputs": [
        {
          "indexed": true,
          "internalType": "address",
          "name": "previousOwner",
          "type": "address"
        },
        {
          "indexed": true,
          "internalType": "address",
          "name": "newOwner",
          "type": "address"
        }
      ],
      "name": "OwnershipTransferred",
      "type": "event"
    },
    {
      "anonymous": false,
      "inputs": [
        {
          "indexed": false,
          "internalType": "uint256",
          "name": "policyId",
          "type": "uint256"
        },
        {
          "indexed": false,
          "internalType": "address",
          "name": "customer",
          "type": "address"
        },
        {
          "indexed": false,
          "internalType": "string",
          "name": "flightCode",
          "type": "string"
        }
      ],
      "name": "PolicyPurchased",
      "type": "event"
    },
    {
      "inputs": [],
      "name": "DELAY_THRESHOLD",
      "outputs": [
        {
          "internalType": "uint256",
          "name": "",
          "type": "uint256"
        }
      ],
      "stateMutability": "view",
      "type": "function"
    },
    {
      "inputs": [],
      "name": "PAYOUT_AMOUNT",
      "outputs": [
        {
          "internalType": "uint256",
          "name": "",
          "type": "uint256"
        }
      ],
      "stateMutability": "view",
      "type": "function"
    },
    {
      "inputs": [],
      "name": "PURCHASE_DEADLINE",
      "outputs": [
        {
          "internalType": "uint256",
          "name": "",
          "type": "uint256"
        }
      ],
      "stateMutability": "view",
      "type": "function"
    },
    {
      "inputs": [],
      "name": "TICKET_PRICE",
      "outputs": [
        {
          "internalType": "uint256",
          "name": "",
          "type": "uint256"
        }
      ],
      "stateMutability": "view",
      "type": "function"
    },
    {
      "inputs": [
        {
          "internalType": "string",
          "name": "_flightCode",
          "type": "string"
        },
        {
          "internalType": "uint256",
          "name": "_scheduledDeparture",
          "type": "uint256"
        }
      ],
      "name": "buyInsurance",
      "outputs": [],
      "stateMutability": "nonpayable",
      "type": "function"
    },
    {
      "inputs": [
        {
          "internalType": "string",
          "name": "",
          "type": "string"
        }
      ],
      "name": "flightActualDepartures",
      "outputs": [
        {
          "internalType": "uint256",
          "name": "",
          "type": "uint256"
        }
      ],
      "stateMutability": "view",
      "type": "function"
    },
    {
      "inputs": [],
      "name": "nextPolicyId",
      "outputs": [
        {
          "internalType": "uint256",
          "name": "",
          "type": "uint256"
        }
      ],
      "stateMutability": "view",
      "type": "function"
    },
    {
      "inputs": [],
      "name": "owner",
      "outputs": [
        {
          "internalType": "address",
          "name": "",
          "type": "address"
        }
      ],
      "stateMutability": "view",
      "type": "function"
    },
    {
      "inputs": [],
      "name": "paymentToken",
      "outputs": [
        {
          "internalType": "contract IERC20",
          "name": "",
          "type": "address"
        }
      ],
      "stateMutability": "view",
      "type": "function"
    },
    {
      "inputs": [
        {
          "internalType": "uint256",
          "name": "",
          "type": "uint256"
        }
      ],
      "name": "policies",
      "outputs": [
        {
          "internalType": "uint256",
          "name": "claimId",
          "type": "uint256"
        },
        {
          "internalType": "address",
          "name": "customer",
          "type": "address"
        },
        {
          "internalType": "string",
          "name": "flightCode",
          "type": "string"
        },
        {
          "internalType": "uint256",
          "name": "scheduledDeparture",
          "type": "uint256"
        },
        {
          "internalType": "enum FlightInsurance.Status",
          "name": "status",
          "type": "uint8"
        },
        {
          "internalType": "uint256",
          "name": "claimTime",
          "type": "uint256"
        },
        {
          "internalType": "uint256",
          "name": "payoutAmount",
          "type": "uint256"
        }
      ],
      "stateMutability": "view",
      "type": "function"
    },
    {
      "inputs": [
        {
          "internalType": "uint256",
          "name": "_policyId",
          "type": "uint256"
        }
      ],
      "name": "processClaim",
      "outputs": [],
      "stateMutability": "nonpayable",
      "type": "function"
    },
    {
      "inputs": [],
      "name": "renounceOwnership",
      "outputs": [],
      "stateMutability": "nonpayable",
      "type": "function"
    },
    {
      "inputs": [
        {
          "internalType": "address",
          "name": "newOwner",
          "type": "address"
        }
      ],
      "name": "transferOwnership",
      "outputs": [],
      "stateMutability": "nonpayable",
      "type": "function"
    },
    {
      "inputs": [
        {
          "internalType": "string",
          "name": "_flightCode",
          "type": "string"
        },
        {
          "internalType": "uint256",
          "name": "_actualDeparture",
          "type": "uint256"
        }
      ],
      "name": "updateFlightStatus",
      "outputs": [],
      "stateMutability": "nonpayable",
      "type": "function"
    },
    {
      "inputs": [
        {
          "internalType": "uint256",
          "name": "amount",
          "type": "uint256"
        }
      ],
      "name": "withdrawTokens",
      "outputs": [],
      "stateMutability": "nonpayable",
      "type": "function"
    }
  ],
  "bytecode": "0x60806040523480156200001157600080fd5b506040516200214e3803806200214e83398181016040528101906200003791906200023c565b33600073ffffffffffffffffffffffffffffffffffffffff168173ffffffffffffffffffffffffffffffffffffffff1603620000ad5760006040517f1e4fbdf7000000000000000000000000000000000000000000000000000000008152600401620000a491906200027f565b60405180910390fd5b620000be816200010e60201b60201c565b506001808190555080600260006101000a81548173ffffffffffffffffffffffffffffffffffffffff021916908373ffffffffffffffffffffffffffffffffffffffff160217905550506200029c565b60008060009054906101000a900473ffffffffffffffffffffffffffffffffffffffff169050816000806101000a81548173ffffffffffffffffffffffffffffffffffffffff021916908373ffffffffffffffffffffffffffffffffffffffff1602179055508173ffffffffffffffffffffffffffffffffffffffff168173ffffffffffffffffffffffffffffffffffffffff167f8be0079c531659141344cd1fd0a4f28419497f9722a3daafe3b4186f6b6457e060405160405180910390a35050565b600080fd5b600073ffffffffffffffffffffffffffffffffffffffff82169050919050565b60006200020482620001d7565b9050919050565b6200021681620001f7565b81146200022257600080fd5b50565b60008151905062000236816200020b565b92915050565b600060208284031215620002555762000254620001d2565b5b6000620002658482850162000225565b91505092915050565b6200027981620001f7565b82525050565b60006020820190506200029660008301846200026e565b92915050565b611ea280620002ac6000396000f3fe608060405234801561001057600080fd5b50600436106100f55760003560e01c80637257dfc911610097578063d33560ac11610066578063d33560ac1461022a578063d3e8948314610246578063e541040f1461027c578063f2fde38b146102ac576100f5565b80637257dfc9146101b45780638da5cb5b146101d0578063aed0acee146101ee578063cad0b8db1461020c576100f5565b80631a95f15f116100d35780631a95f15f146101525780633013ce2914610170578063315a095d1461018e578063715018a6146101aa576100f5565b80630386a7e0146100fa5780630cf922d51461011857806315a6753e14610134575b600080fd5b6101026102c8565b60405161010f9190610edc565b60405180910390f35b610132600480360381019061012d919061107d565b6102ce565b005b61013c6105dd565b6040516101499190610edc565b60405180910390f35b61015a6105e4565b6040516101679190610edc565b60405180910390f35b6101786105ea565b6040516101859190611158565b60405180910390f35b6101a860048036038101906101a39190611173565b610610565b005b6101b26106fa565b005b6101ce60048036038101906101c99190611173565b61070e565b005b6101d8610b12565b6040516101e591906111c1565b60405180910390f35b6101f6610b3b565b6040516102039190610edc565b60405180910390f35b610214610b41565b6040516102219190610edc565b60405180910390f35b610244600480360381019061023f919061107d565b610b47565b005b610260600480360381019061025b9190611173565b610b76565b60405161027397969594939291906112d2565b60405180910390f35b61029660048036038101906102919190611348565b610c6d565b6040516102a39190610edc565b60405180910390f35b6102c660048036038101906102c191906113bd565b610c9b565b005b6122b881565b6102d6610d21565b428111610318576040517f08c379a000000000000000000000000000000000000000000000000000000000815260040161030f90611436565b60405180910390fd5b6202a30042826103289190611485565b1015610369576040517f08c379a000000000000000000000000000000000000000000000000000000000815260040161036090611505565b60405180910390fd5b6000600260009054906101000a900473ffffffffffffffffffffffffffffffffffffffff1673ffffffffffffffffffffffffffffffffffffffff166323b872dd33306103e86040518463ffffffff1660e01b81526004016103cc93929190611525565b6020604051808303816000875af11580156103eb573d6000803e3d6000fd5b505050506040513d601f19601f8201168201806040525081019061040f9190611594565b905080610451576040517f08c379a000000000000000000000000000000000000000000000000000000000815260040161044890611633565b60405180910390fd5b60006003600081548092919061046690611653565b9190505590506040518060e001604052808281526020013373ffffffffffffffffffffffffffffffffffffffff168152602001858152602001848152602001600060028111156104b9576104b861125b565b5b81526020014281526020016000815250600460008381526020019081526020016000206000820151816000015560208201518160010160006101000a81548173ffffffffffffffffffffffffffffffffffffffff021916908373ffffffffffffffffffffffffffffffffffffffff1602179055506040820151816002019081610542919061189d565b506060820151816003015560808201518160040160006101000a81548160ff021916908360028111156105785761057761125b565b5b021790555060a0820151816005015560c082015181600601559050507fd37253fbd5cf94a2af2359b0e0de020f4dbd07b17b05c41b307eed4681488cae8133866040516105c79392919061196f565b60405180910390a150506105d9610d67565b5050565b6202a30081565b6103e881565b600260009054906101000a900473ffffffffffffffffffffffffffffffffffffffff1681565b610618610d70565b600260009054906101000a900473ffffffffffffffffffffffffffffffffffffffff1673ffffffffffffffffffffffffffffffffffffffff1663a9059cbb33836040518363ffffffff1660e01b81526004016106759291906119ad565b6020604051808303816000875af1158015610694573d6000803e3d6000fd5b505050506040513d601f19601f820116820180604052508101906106b89190611594565b6106f7576040517f08c379a00000000000000000000000000000000000000000000000000000000081526004016106ee90611a22565b60405180910390fd5b50565b610702610d70565b61070c6000610df7565b565b610716610d21565b6000600460008381526020019081526020016000209050600060028111156107415761074061125b565b5b8160040160009054906101000a900460ff1660028111156107655761076461125b565b5b146107a5576040517f08c379a000000000000000000000000000000000000000000000000000000000815260040161079c90611a8e565b60405180910390fd5b60006005826002016040516107ba9190611b3c565b90815260200160405180910390205490506000811161080e576040517f08c379a000000000000000000000000000000000000000000000000000000000815260040161080590611b9f565b60405180910390fd5b8160030154811180156108315750611c2082600301548261082f9190611485565b115b15610a93576122b8600260009054906101000a900473ffffffffffffffffffffffffffffffffffffffff1673ffffffffffffffffffffffffffffffffffffffff166370a08231306040518263ffffffff1660e01b815260040161089491906111c1565b602060405180830381865afa1580156108b1573d6000803e3d6000fd5b505050506040513d601f19601f820116820180604052508101906108d59190611bd4565b1015610916576040517f08c379a000000000000000000000000000000000000000000000000000000000815260040161090d90611c4d565b60405180910390fd5b60028260040160006101000a81548160ff0219169083600281111561093e5761093d61125b565b5b02179055506122b88260060181905550600260009054906101000a900473ffffffffffffffffffffffffffffffffffffffff1673ffffffffffffffffffffffffffffffffffffffff1663a9059cbb8360010160009054906101000a900473ffffffffffffffffffffffffffffffffffffffff166122b86040518363ffffffff1660e01b81526004016109d19291906119ad565b6020604051808303816000875af11580156109f0573d6000803e3d6000fd5b505050506040513d601f19601f82011682018060405250810190610a149190611594565b610a53576040517f08c379a0000000000000000000000000000000000000000000000000000000008152600401610a4a90611cb9565b60405180910390fd5b7fed0f0261353205367c85bba1480f6766d06afbc6de6a29252d0a089891aedf2f836122b8604051610a86929190611d25565b60405180910390a1610b05565b60018260040160006101000a81548160ff02191690836002811115610abb57610aba61125b565b5b0217905550600082600601819055507fed0f0261353205367c85bba1480f6766d06afbc6de6a29252d0a089891aedf2f836000604051610afc929190611de8565b60405180910390a15b5050610b0f610d67565b50565b60008060009054906101000a900473ffffffffffffffffffffffffffffffffffffffff16905090565b611c2081565b60035481565b610b4f610d70565b80600583604051610b609190611e55565b9081526020016040518091039020819055505050565b60046020528060005260406000206000915090508060000154908060010160009054906101000a900473ffffffffffffffffffffffffffffffffffffffff1690806002018054610bc5906116ca565b80601f0160208091040260200160405190810160405280929190818152602001828054610bf1906116ca565b8015610c3e5780601f10610c1357610100808354040283529160200191610c3e565b820191906000526020600020905b815481529060010190602001808311610c2157829003601f168201915b5050505050908060030154908060040160009054906101000a900460ff16908060050154908060060154905087565b6005818051602081018201805184825260208301602085012081835280955050505050506000915090505481565b610ca3610d70565b600073ffffffffffffffffffffffffffffffffffffffff168173ffffffffffffffffffffffffffffffffffffffff1603610d155760006040517f1e4fbdf7000000000000000000000000000000000000000000000000000000008152600401610d0c91906111c1565b60405180910390fd5b610d1e81610df7565b50565b600260015403610d5d576040517f3ee5aeb500000000000000000000000000000000000000000000000000000000815260040160405180910390fd5b6002600181905550565b60018081905550565b610d78610ebb565b73ffffffffffffffffffffffffffffffffffffffff16610d96610b12565b73ffffffffffffffffffffffffffffffffffffffff1614610df557610db9610ebb565b6040517f118cdaa7000000000000000000000000000000000000000000000000000000008152600401610dec91906111c1565b60405180910390fd5b565b60008060009054906101000a900473ffffffffffffffffffffffffffffffffffffffff169050816000806101000a81548173ffffffffffffffffffffffffffffffffffffffff021916908373ffffffffffffffffffffffffffffffffffffffff1602179055508173ffffffffffffffffffffffffffffffffffffffff168173ffffffffffffffffffffffffffffffffffffffff167f8be0079c531659141344cd1fd0a4f28419497f9722a3daafe3b4186f6b6457e060405160405180910390a35050565b600033905090565b6000819050919050565b610ed681610ec3565b82525050565b6000602082019050610ef16000830184610ecd565b92915050565b6000604051905090565b600080fd5b600080fd5b600080fd5b600080fd5b6000601f19601f8301169050919050565b7f4e487b7100000000000000000000000000000000000000000000000000000000600052604160045260246000fd5b610f5e82610f15565b810181811067ffffffffffffffff82111715610f7d57610f7c610f26565b5b80604052505050565b6000610f90610ef7565b9050610f9c8282610f55565b919050565b600067ffffffffffffffff821115610fbc57610fbb610f26565b5b610fc582610f15565b9050602081019050919050565b82818337600083830152505050565b6000610ff4610fef84610fa1565b610f86565b9050828152602081018484840111156110105761100f610f10565b5b61101b848285610fd2565b509392505050565b600082601f83011261103857611037610f0b565b5b8135611048848260208601610fe1565b91505092915050565b61105a81610ec3565b811461106557600080fd5b50565b60008135905061107781611051565b92915050565b6000806040838503121561109457611093610f01565b5b600083013567ffffffffffffffff8111156110b2576110b1610f06565b5b6110be85828601611023565b92505060206110cf85828601611068565b9150509250929050565b600073ffffffffffffffffffffffffffffffffffffffff82169050919050565b6000819050919050565b600061111e611119611114846110d9565b6110f9565b6110d9565b9050919050565b600061113082611103565b9050919050565b600061114282611125565b9050919050565b61115281611137565b82525050565b600060208201905061116d6000830184611149565b92915050565b60006020828403121561118957611188610f01565b5b600061119784828501611068565b91505092915050565b60006111ab826110d9565b9050919050565b6111bb816111a0565b82525050565b60006020820190506111d660008301846111b2565b92915050565b600081519050919050565b600082825260208201905092915050565b60005b838110156112165780820151818401526020810190506111fb565b60008484015250505050565b600061122d826111dc565b61123781856111e7565b93506112478185602086016111f8565b61125081610f15565b840191505092915050565b7f4e487b7100000000000000000000000000000000000000000000000000000000600052602160045260246000fd5b6003811061129b5761129a61125b565b5b50565b60008190506112ac8261128a565b919050565b60006112bc8261129e565b9050919050565b6112cc816112b1565b82525050565b600060e0820190506112e7600083018a610ecd565b6112f460208301896111b2565b81810360408301526113068188611222565b90506113156060830187610ecd565b61132260808301866112c3565b61132f60a0830185610ecd565b61133c60c0830184610ecd565b98975050505050505050565b60006020828403121561135e5761135d610f01565b5b600082013567ffffffffffffffff81111561137c5761137b610f06565b5b61138884828501611023565b91505092915050565b61139a816111a0565b81146113a557600080fd5b50565b6000813590506113b781611391565b92915050565b6000602082840312156113d3576113d2610f01565b5b60006113e1848285016113a8565b91505092915050565b7f47696f20626179206b686f6e6720686f70206c65000000000000000000000000600082015250565b60006114206014836111e7565b915061142b826113ea565b602082019050919050565b6000602082019050818103600083015261144f81611413565b9050919050565b7f4e487b7100000000000000000000000000000000000000000000000000000000600052601160045260246000fd5b600061149082610ec3565b915061149b83610ec3565b92508282039050818111156114b3576114b2611456565b5b92915050565b7f50686169206d7561207472756f632032206e6761790000000000000000000000600082015250565b60006114ef6015836111e7565b91506114fa826114b9565b602082019050919050565b6000602082019050818103600083015261151e816114e2565b9050919050565b600060608201905061153a60008301866111b2565b61154760208301856111b2565b6115546040830184610ecd565b949350505050565b60008115159050919050565b6115718161155c565b811461157c57600080fd5b50565b60008151905061158e81611568565b92915050565b6000602082840312156115aa576115a9610f01565b5b60006115b88482850161157f565b91505092915050565b7f4c6f69207468616e6820746f616e3a204861792063686163206368616e20626160008201527f6e20646120417070726f766520546f6b656e0000000000000000000000000000602082015250565b600061161d6032836111e7565b9150611628826115c1565b604082019050919050565b6000602082019050818103600083015261164c81611610565b9050919050565b600061165e82610ec3565b91507fffffffffffffffffffffffffffffffffffffffffffffffffffffffffffffffff82036116905761168f611456565b5b600182019050919050565b7f4e487b7100000000000000000000000000000000000000000000000000000000600052602260045260246000fd5b600060028204905060018216806116e257607f821691505b6020821081036116f5576116f461169b565b5b50919050565b60008190508160005260206000209050919050565b60006020601f8301049050919050565b600082821b905092915050565b60006008830261175d7fffffffffffffffffffffffffffffffffffffffffffffffffffffffffffffffff82611720565b6117678683611720565b95508019841693508086168417925050509392505050565b600061179a61179561179084610ec3565b6110f9565b610ec3565b9050919050565b6000819050919050565b6117b48361177f565b6117c86117c0826117a1565b84845461172d565b825550505050565b600090565b6117dd6117d0565b6117e88184846117ab565b505050565b5b8181101561180c576118016000826117d5565b6001810190506117ee565b5050565b601f82111561185157611822816116fb565b61182b84611710565b8101602085101561183a578190505b61184e61184685611710565b8301826117ed565b50505b505050565b600082821c905092915050565b600061187460001984600802611856565b1980831691505092915050565b600061188d8383611863565b9150826002028217905092915050565b6118a6826111dc565b67ffffffffffffffff8111156118bf576118be610f26565b5b6118c982546116ca565b6118d4828285611810565b600060209050601f83116001811461190757600084156118f5578287015190505b6118ff8582611881565b865550611967565b601f198416611915866116fb565b60005b8281101561193d57848901518255600182019150602085019450602081019050611918565b8683101561195a5784890151611956601f891682611863565b8355505b6001600288020188555050505b505050505050565b60006060820190506119846000830186610ecd565b61199160208301856111b2565b81810360408301526119a38184611222565b9050949350505050565b60006040820190506119c260008301856111b2565b6119cf6020830184610ecd565b9392505050565b7f4c6f6920727574207469656e0000000000000000000000000000000000000000600082015250565b6000611a0c600c836111e7565b9150611a17826119d6565b602082019050919050565b60006020820190508181036000830152611a3b816119ff565b9050919050565b7f446f6e206461207875206c7920786f6e67000000000000000000000000000000600082015250565b6000611a786011836111e7565b9150611a8382611a42565b602082019050919050565b60006020820190508181036000830152611aa781611a6b565b9050919050565b600081905092915050565b60008154611ac6816116ca565b611ad08186611aae565b94506001821660008114611aeb5760018114611b0057611b33565b60ff1983168652811515820286019350611b33565b611b09856116fb565b60005b83811015611b2b57815481890152600182019150602081019050611b0c565b838801955050505b50505092915050565b6000611b488284611ab9565b915081905092915050565b7f4368756120636f2067696f2068612063616e6800000000000000000000000000600082015250565b6000611b896013836111e7565b9150611b9482611b53565b602082019050919050565b60006020820190508181036000830152611bb881611b7c565b9050919050565b600081519050611bce81611051565b92915050565b600060208284031215611bea57611be9610f01565b5b6000611bf884828501611bbf565b91505092915050565b7f5175792062616f206869656d2074616d20686574207469656e00000000000000600082015250565b6000611c376019836111e7565b9150611c4282611c01565b602082019050919050565b60006020820190508181036000830152611c6681611c2a565b9050919050565b7f4c6f692063687579656e206b686f616e2064656e206275000000000000000000600082015250565b6000611ca36017836111e7565b9150611cae82611c6d565b602082019050919050565b60006020820190508181036000830152611cd281611c96565b9050919050565b7f5041494400000000000000000000000000000000000000000000000000000000600082015250565b6000611d0f6004836111e7565b9150611d1a82611cd9565b602082019050919050565b6000606082019050611d3a6000830185610ecd565b8181036020830152611d4b81611d02565b9050611d5a6040830184610ecd565b9392505050565b7f52454a4543544544000000000000000000000000000000000000000000000000600082015250565b6000611d976008836111e7565b9150611da282611d61565b602082019050919050565b6000819050919050565b6000611dd2611dcd611dc884611dad565b6110f9565b610ec3565b9050919050565b611de281611db7565b82525050565b6000606082019050611dfd6000830185610ecd565b8181036020830152611e0e81611d8a565b9050611e1d6040830184611dd9565b9392505050565b6000611e2f826111dc565b611e398185611aae565b9350611e498185602086016111f8565b80840191505092915050565b6000611e618284611e24565b91508190509291505056fea2646970667358221220c482f27cd6e5a18bb2e356504aa33cbcb3ccbb144b690e0f1af700d306d8508564736f6c63430008140033",
  "linkReferences": {},
  "deployedLinkReferences": {}
}