{
  "_format": "hh-sol-artifact-1",
  "contractName": "FlightInsurance",
  "sourceName": "contracts/FlightInsurance.sol",
  "abi": [
    {
      "inputs": [
        {
          "internalType": "address",
          "name": "_tokenAddress",
          "type": "address"
        }
      ],
      "stateMutability": "nonpayable",
      "type": "constructor"
    },
    {
      "inputs": [
        {
          "internalType": "address",
          "name": "owner",
          "type": "address"
        }
      ],
      "name": "OwnableInvalidOwner",
      "type": "error"
    },
    {
      "inputs": [
        {
          "internalType": "address",
          "name": "account",
          "type": "address"
        }
      ],
      "name": "OwnableUnauthorizedAccount",
      "type": "error"
    },
    {
      "inputs": [],
      "name": "ReentrancyGuardReentrantCall",
      "type": "error"
    },
    {
      "anonymous": false,
      "inputs": [
        {
          "indexed": false,
          "internalType": "uint256",
          "name": "policyId",
          "type": "uint256"
        },
        {
          "indexed": false,
          "internalType": "string",
          "name": "status",
          "type": "string"
        },
        {
          "indexed": false,
          "internalType": "uint256",
          "name": "amount",
          "type": "uint256"
        }
      ],
      "name": "ClaimProcessed",
      "type": "event"
    },
    {
      "anonymous": false,
      "inputs": [
        {
          "indexed": false,
          "internalType": "string",
          "name": "newCid",
          "type": "string"
        }
      ],
      "name": "DataUpdated",
      "type": "event"
    },
    {
      "anonymous": false,
      "inputs": [
        {
          "indexed": true,
          "internalType": "address",
          "name": "previousOwner",
          "type": "address"
        },
        {
          "indexed": true,
          "internalType": "address",
          "name": "newOwner",
          "type": "address"
        }
      ],
      "name": "OwnershipTransferred",
      "type": "event"
    },
    {
      "anonymous": false,
      "inputs": [
        {
          "indexed": false,
          "internalType": "uint256",
          "name": "policyId",
          "type": "uint256"
        },
        {
          "indexed": false,
          "internalType": "address",
          "name": "customer",
          "type": "address"
        },
        {
          "indexed": false,
          "internalType": "string",
          "name": "flightCode",
          "type": "string"
        }
      ],
      "name": "PolicyPurchased",
      "type": "event"
    },
    {
      "anonymous": false,
      "inputs": [
        {
          "indexed": true,
          "internalType": "address",
          "name": "user",
          "type": "address"
        },
        {
          "indexed": false,
          "internalType": "string",
          "name": "newCid",
          "type": "string"
        }
      ],
      "name": "UserProfileUpdated",
      "type": "event"
    },
    {
      "inputs": [],
      "name": "DELAY_THRESHOLD",
      "outputs": [
        {
          "internalType": "uint256",
          "name": "",
          "type": "uint256"
        }
      ],
      "stateMutability": "view",
      "type": "function"
    },
    {
      "inputs": [],
      "name": "PAYOUT_AMOUNT",
      "outputs": [
        {
          "internalType": "uint256",
          "name": "",
          "type": "uint256"
        }
      ],
      "stateMutability": "view",
      "type": "function"
    },
    {
      "inputs": [],
      "name": "PURCHASE_DEADLINE",
      "outputs": [
        {
          "internalType": "uint256",
          "name": "",
          "type": "uint256"
        }
      ],
      "stateMutability": "view",
      "type": "function"
    },
    {
      "inputs": [],
      "name": "TICKET_PRICE",
      "outputs": [
        {
          "internalType": "uint256",
          "name": "",
          "type": "uint256"
        }
      ],
      "stateMutability": "view",
      "type": "function"
    },
    {
      "inputs": [
        {
          "internalType": "string",
          "name": "_flightCode",
          "type": "string"
        },
        {
          "internalType": "uint256",
          "name": "_scheduledDeparture",
          "type": "uint256"
        }
      ],
      "name": "buyInsurance",
      "outputs": [],
      "stateMutability": "nonpayable",
      "type": "function"
    },
    {
      "inputs": [
        {
          "internalType": "string",
          "name": "",
          "type": "string"
        }
      ],
      "name": "flightActualDepartures",
      "outputs": [
        {
          "internalType": "uint256",
          "name": "",
          "type": "uint256"
        }
      ],
      "stateMutability": "view",
      "type": "function"
    },
    {
      "inputs": [],
      "name": "latestDataCID",
      "outputs": [
        {
          "internalType": "string",
          "name": "",
          "type": "string"
        }
      ],
      "stateMutability": "view",
      "type": "function"
    },
    {
      "inputs": [],
      "name": "nextPolicyId",
      "outputs": [
        {
          "internalType": "uint256",
          "name": "",
          "type": "uint256"
        }
      ],
      "stateMutability": "view",
      "type": "function"
    },
    {
      "inputs": [],
      "name": "owner",
      "outputs": [
        {
          "internalType": "address",
          "name": "",
          "type": "address"
        }
      ],
      "stateMutability": "view",
      "type": "function"
    },
    {
      "inputs": [],
      "name": "paymentToken",
      "outputs": [
        {
          "internalType": "contract IERC20",
          "name": "",
          "type": "address"
        }
      ],
      "stateMutability": "view",
      "type": "function"
    },
    {
      "inputs": [
        {
          "internalType": "uint256",
          "name": "",
          "type": "uint256"
        }
      ],
      "name": "policies",
      "outputs": [
        {
          "internalType": "uint256",
          "name": "claimId",
          "type": "uint256"
        },
        {
          "internalType": "address",
          "name": "customer",
          "type": "address"
        },
        {
          "internalType": "string",
          "name": "flightCode",
          "type": "string"
        },
        {
          "internalType": "uint256",
          "name": "scheduledDeparture",
          "type": "uint256"
        },
        {
          "internalType": "enum FlightInsurance.Status",
          "name": "status",
          "type": "uint8"
        },
        {
          "internalType": "uint256",
          "name": "claimTime",
          "type": "uint256"
        },
        {
          "internalType": "uint256",
          "name": "payoutAmount",
          "type": "uint256"
        }
      ],
      "stateMutability": "view",
      "type": "function"
    },
    {
      "inputs": [
        {
          "internalType": "uint256",
          "name": "_policyId",
          "type": "uint256"
        }
      ],
      "name": "processClaim",
      "outputs": [],
      "stateMutability": "nonpayable",
      "type": "function"
    },
    {
      "inputs": [],
      "name": "renounceOwnership",
      "outputs": [],
      "stateMutability": "nonpayable",
      "type": "function"
    },
    {
      "inputs": [
        {
          "internalType": "address",
          "name": "newOwner",
          "type": "address"
        }
      ],
      "name": "transferOwnership",
      "outputs": [],
      "stateMutability": "nonpayable",
      "type": "function"
    },
    {
      "inputs": [
        {
          "internalType": "string",
          "name": "_newCid",
          "type": "string"
        }
      ],
      "name": "updateDataCID",
      "outputs": [],
      "stateMutability": "nonpayable",
      "type": "function"
    },
    {
      "inputs": [
        {
          "internalType": "string",
          "name": "_flightCode",
          "type": "string"
        },
        {
          "internalType": "uint256",
          "name": "_actualDeparture",
          "type": "uint256"
        },
        {
          "internalType": "string",
          "name": "_newCid",
          "type": "string"
        }
      ],
      "name": "updateFlightStatus",
      "outputs": [],
      "stateMutability": "nonpayable",
      "type": "function"
    },
    {
      "inputs": [
        {
          "internalType": "string",
          "name": "_newCid",
          "type": "string"
        }
      ],
      "name": "updateUserProfile",
      "outputs": [],
      "stateMutability": "nonpayable",
      "type": "function"
    },
    {
      "inputs": [
        {
          "internalType": "address",
          "name": "",
          "type": "address"
        }
      ],
      "name": "userProfiles",
      "outputs": [
        {
          "internalType": "string",
          "name": "",
          "type": "string"
        }
      ],
      "stateMutability": "view",
      "type": "function"
    },
    {
      "inputs": [
        {
          "internalType": "uint256",
          "name": "amount",
          "type": "uint256"
        }
      ],
      "name": "withdrawTokens",
      "outputs": [],
      "stateMutability": "nonpayable",
      "type": "function"
    }
  ],
  "bytecode": "0x60806040523480156200001157600080fd5b50604051620024563803806200245683398181016040528101906200003791906200023c565b33600073ffffffffffffffffffffffffffffffffffffffff168173ffffffffffffffffffffffffffffffffffffffff1603620000ad5760006040517f1e4fbdf7000000000000000000000000000000000000000000000000000000008152600401620000a491906200027f565b60405180910390fd5b620000be816200010e60201b60201c565b506001808190555080600260006101000a81548173ffffffffffffffffffffffffffffffffffffffff021916908373ffffffffffffffffffffffffffffffffffffffff160217905550506200029c565b60008060009054906101000a900473ffffffffffffffffffffffffffffffffffffffff169050816000806101000a81548173ffffffffffffffffffffffffffffffffffffffff021916908373ffffffffffffffffffffffffffffffffffffffff1602179055508173ffffffffffffffffffffffffffffffffffffffff168173ffffffffffffffffffffffffffffffffffffffff167f8be0079c531659141344cd1fd0a4f28419497f9722a3daafe3b4186f6b6457e060405160405180910390a35050565b600080fd5b600073ffffffffffffffffffffffffffffffffffffffff82169050919050565b60006200020482620001d7565b9050919050565b6200021681620001f7565b81146200022257600080fd5b50565b60008151905062000236816200020b565b92915050565b600060208284031215620002555762000254620001d2565b5b6000620002658482850162000225565b91505092915050565b6200027981620001f7565b82525050565b60006020820190506200029660008301846200026e565b92915050565b6121aa80620002ac6000396000f3fe608060405234801561001057600080fd5b50600436106101215760003560e01c8063887feb57116100ad578063c27b30ea11610071578063c27b30ea146102bc578063cad0b8db146102da578063d3e89483146102f8578063e541040f1461032e578063f2fde38b1461035e57610121565b8063887feb571461022c5780638da5cb5b14610248578063ae86ffdb14610266578063aed0acee14610282578063b2469a60146102a057610121565b80633013ce29116100f45780633013ce291461019c578063315a095d146101ba578063332d56d7146101d6578063715018a6146102065780637257dfc91461021057610121565b80630386a7e0146101265780630cf922d51461014457806315a6753e146101605780631a95f15f1461017e575b600080fd5b61012e61037a565b60405161013b91906111a3565b60405180910390f35b61015e60048036038101906101599190611344565b610380565b005b61016861063e565b60405161017591906111a3565b60405180910390f35b610186610645565b60405161019391906111a3565b60405180910390f35b6101a461064b565b6040516101b1919061141f565b60405180910390f35b6101d460048036038101906101cf919061143a565b610671565b005b6101f060048036038101906101eb91906114a5565b61075b565b6040516101fd9190611551565b60405180910390f35b61020e6107fb565b005b61022a6004803603810190610225919061143a565b61080f565b005b61024660048036038101906102419190611573565b610c13565b005b610250610c8a565b60405161025d919061160d565b60405180910390f35b610280600480360381019061027b9190611628565b610cb3565b005b61028a610d51565b60405161029791906111a3565b60405180910390f35b6102ba60048036038101906102b59190611628565b610d57565b005b6102c4610da9565b6040516102d19190611551565b60405180910390f35b6102e2610e37565b6040516102ef91906111a3565b60405180910390f35b610312600480360381019061030d919061143a565b610e3d565b60405161032597969594939291906116e8565b60405180910390f35b61034860048036038101906103439190611628565b610f34565b60405161035591906111a3565b60405180910390f35b610378600480360381019061037391906114a5565b610f62565b005b6122b881565b610388610fe8565b4281116103ca576040517f08c379a00000000000000000000000000000000000000000000000000000000081526004016103c1906117aa565b60405180910390fd5b6000600260009054906101000a900473ffffffffffffffffffffffffffffffffffffffff1673ffffffffffffffffffffffffffffffffffffffff166323b872dd33306103e86040518463ffffffff1660e01b815260040161042d939291906117ca565b6020604051808303816000875af115801561044c573d6000803e3d6000fd5b505050506040513d601f19601f820116820180604052508101906104709190611839565b9050806104b2576040517f08c379a00000000000000000000000000000000000000000000000000000000081526004016104a9906118d8565b60405180910390fd5b6000600360008154809291906104c790611927565b9190505590506040518060e001604052808281526020013373ffffffffffffffffffffffffffffffffffffffff1681526020018581526020018481526020016000600281111561051a57610519611671565b5b81526020014281526020016000815250600660008381526020019081526020016000206000820151816000015560208201518160010160006101000a81548173ffffffffffffffffffffffffffffffffffffffff021916908373ffffffffffffffffffffffffffffffffffffffff16021790555060408201518160020190816105a39190611b71565b506060820151816003015560808201518160040160006101000a81548160ff021916908360028111156105d9576105d8611671565b5b021790555060a0820151816005015560c082015181600601559050507fd37253fbd5cf94a2af2359b0e0de020f4dbd07b17b05c41b307eed4681488cae81338660405161062893929190611c43565b60405180910390a1505061063a61102e565b5050565b6202a30081565b6103e881565b600260009054906101000a900473ffffffffffffffffffffffffffffffffffffffff1681565b610679611037565b600260009054906101000a900473ffffffffffffffffffffffffffffffffffffffff1673ffffffffffffffffffffffffffffffffffffffff1663a9059cbb33836040518363ffffffff1660e01b81526004016106d6929190611c81565b6020604051808303816000875af11580156106f5573d6000803e3d6000fd5b505050506040513d601f19601f820116820180604052508101906107199190611839565b610758576040517f08c379a000000000000000000000000000000000000000000000000000000000815260040161074f90611cf6565b60405180910390fd5b50565b6005602052806000526040600020600091509050805461077a9061199e565b80601f01602080910402602001604051908101604052809291908181526020018280546107a69061199e565b80156107f35780601f106107c8576101008083540402835291602001916107f3565b820191906000526020600020905b8154815290600101906020018083116107d657829003601f168201915b505050505081565b610803611037565b61080d60006110be565b565b610817610fe8565b60006006600083815260200190815260200160002090506000600281111561084257610841611671565b5b8160040160009054906101000a900460ff16600281111561086657610865611671565b5b146108a6576040517f08c379a000000000000000000000000000000000000000000000000000000000815260040161089d90611d62565b60405180910390fd5b60006007826002016040516108bb9190611e10565b90815260200160405180910390205490506000811161090f576040517f08c379a000000000000000000000000000000000000000000000000000000000815260040161090690611e73565b60405180910390fd5b8160030154811180156109325750611c208260030154826109309190611e93565b115b15610b94576122b8600260009054906101000a900473ffffffffffffffffffffffffffffffffffffffff1673ffffffffffffffffffffffffffffffffffffffff166370a08231306040518263ffffffff1660e01b8152600401610995919061160d565b602060405180830381865afa1580156109b2573d6000803e3d6000fd5b505050506040513d601f19601f820116820180604052508101906109d69190611edc565b1015610a17576040517f08c379a0000000000000000000000000000000000000000000000000000000008152600401610a0e90611f55565b60405180910390fd5b60028260040160006101000a81548160ff02191690836002811115610a3f57610a3e611671565b5b02179055506122b88260060181905550600260009054906101000a900473ffffffffffffffffffffffffffffffffffffffff1673ffffffffffffffffffffffffffffffffffffffff1663a9059cbb8360010160009054906101000a900473ffffffffffffffffffffffffffffffffffffffff166122b86040518363ffffffff1660e01b8152600401610ad2929190611c81565b6020604051808303816000875af1158015610af1573d6000803e3d6000fd5b505050506040513d601f19601f82011682018060405250810190610b159190611839565b610b54576040517f08c379a0000000000000000000000000000000000000000000000000000000008152600401610b4b90611fc1565b60405180910390fd5b7fed0f0261353205367c85bba1480f6766d06afbc6de6a29252d0a089891aedf2f836122b8604051610b8792919061202d565b60405180910390a1610c06565b60018260040160006101000a81548160ff02191690836002811115610bbc57610bbb611671565b5b0217905550600082600601819055507fed0f0261353205367c85bba1480f6766d06afbc6de6a29252d0a089891aedf2f836000604051610bfd9291906120f0565b60405180910390a15b5050610c1061102e565b50565b610c1b611037565b81600784604051610c2c919061215d565b9081526020016040518091039020819055508060049081610c4d9190611b71565b507f70a1cfe867989ce2ae7d36e8dfa2d3f6ad43678fe220e15a59c1d503092f941381604051610c7d9190611551565b60405180910390a1505050565b60008060009054906101000a900473ffffffffffffffffffffffffffffffffffffffff16905090565b80600560003373ffffffffffffffffffffffffffffffffffffffff1673ffffffffffffffffffffffffffffffffffffffff1681526020019081526020016000209081610cff9190611b71565b503373ffffffffffffffffffffffffffffffffffffffff167f9ab5b01c08788936fb2b48da858665afe9fa06d32e17dc49e0510c24ba05c98382604051610d469190611551565b60405180910390a250565b611c2081565b610d5f611037565b8060049081610d6e9190611b71565b507f70a1cfe867989ce2ae7d36e8dfa2d3f6ad43678fe220e15a59c1d503092f941381604051610d9e9190611551565b60405180910390a150565b60048054610db69061199e565b80601f0160208091040260200160405190810160405280929190818152602001828054610de29061199e565b8015610e2f5780601f10610e0457610100808354040283529160200191610e2f565b820191906000526020600020905b815481529060010190602001808311610e1257829003601f168201915b505050505081565b60035481565b60066020528060005260406000206000915090508060000154908060010160009054906101000a900473ffffffffffffffffffffffffffffffffffffffff1690806002018054610e8c9061199e565b80601f0160208091040260200160405190810160405280929190818152602001828054610eb89061199e565b8015610f055780601f10610eda57610100808354040283529160200191610f05565b820191906000526020600020905b815481529060010190602001808311610ee857829003601f168201915b5050505050908060030154908060040160009054906101000a900460ff16908060050154908060060154905087565b6007818051602081018201805184825260208301602085012081835280955050505050506000915090505481565b610f6a611037565b600073ffffffffffffffffffffffffffffffffffffffff168173ffffffffffffffffffffffffffffffffffffffff1603610fdc5760006040517f1e4fbdf7000000000000000000000000000000000000000000000000000000008152600401610fd3919061160d565b60405180910390fd5b610fe5816110be565b50565b600260015403611024576040517f3ee5aeb500000000000000000000000000000000000000000000000000000000815260040160405180910390fd5b6002600181905550565b60018081905550565b61103f611182565b73ffffffffffffffffffffffffffffffffffffffff1661105d610c8a565b73ffffffffffffffffffffffffffffffffffffffff16146110bc57611080611182565b6040517f118cdaa70000000000000000000000000000000000000000000000000000000081526004016110b3919061160d565b60405180910390fd5b565b60008060009054906101000a900473ffffffffffffffffffffffffffffffffffffffff169050816000806101000a81548173ffffffffffffffffffffffffffffffffffffffff021916908373ffffffffffffffffffffffffffffffffffffffff1602179055508173ffffffffffffffffffffffffffffffffffffffff168173ffffffffffffffffffffffffffffffffffffffff167f8be0079c531659141344cd1fd0a4f28419497f9722a3daafe3b4186f6b6457e060405160405180910390a35050565b600033905090565b6000819050919050565b61119d8161118a565b82525050565b60006020820190506111b86000830184611194565b92915050565b6000604051905090565b600080fd5b600080fd5b600080fd5b600080fd5b6000601f19601f8301169050919050565b7f4e487b7100000000000000000000000000000000000000000000000000000000600052604160045260246000fd5b611225826111dc565b810181811067ffffffffffffffff82111715611244576112436111ed565b5b80604052505050565b60006112576111be565b9050611263828261121c565b919050565b600067ffffffffffffffff821115611283576112826111ed565b5b61128c826111dc565b9050602081019050919050565b82818337600083830152505050565b60006112bb6112b684611268565b61124d565b9050828152602081018484840111156112d7576112d66111d7565b5b6112e2848285611299565b509392505050565b600082601f8301126112ff576112fe6111d2565b5b813561130f8482602086016112a8565b91505092915050565b6113218161118a565b811461132c57600080fd5b50565b60008135905061133e81611318565b92915050565b6000806040838503121561135b5761135a6111c8565b5b600083013567ffffffffffffffff811115611379576113786111cd565b5b611385858286016112ea565b92505060206113968582860161132f565b9150509250929050565b600073ffffffffffffffffffffffffffffffffffffffff82169050919050565b6000819050919050565b60006113e56113e06113db846113a0565b6113c0565b6113a0565b9050919050565b60006113f7826113ca565b9050919050565b6000611409826113ec565b9050919050565b611419816113fe565b82525050565b60006020820190506114346000830184611410565b92915050565b6000602082840312156114505761144f6111c8565b5b600061145e8482850161132f565b91505092915050565b6000611472826113a0565b9050919050565b61148281611467565b811461148d57600080fd5b50565b60008135905061149f81611479565b92915050565b6000602082840312156114bb576114ba6111c8565b5b60006114c984828501611490565b91505092915050565b600081519050919050565b600082825260208201905092915050565b60005b8381101561150c5780820151818401526020810190506114f1565b60008484015250505050565b6000611523826114d2565b61152d81856114dd565b935061153d8185602086016114ee565b611546816111dc565b840191505092915050565b6000602082019050818103600083015261156b8184611518565b905092915050565b60008060006060848603121561158c5761158b6111c8565b5b600084013567ffffffffffffffff8111156115aa576115a96111cd565b5b6115b6868287016112ea565b93505060206115c78682870161132f565b925050604084013567ffffffffffffffff8111156115e8576115e76111cd565b5b6115f4868287016112ea565b9150509250925092565b61160781611467565b82525050565b600060208201905061162260008301846115fe565b92915050565b60006020828403121561163e5761163d6111c8565b5b600082013567ffffffffffffffff81111561165c5761165b6111cd565b5b611668848285016112ea565b91505092915050565b7f4e487b7100000000000000000000000000000000000000000000000000000000600052602160045260246000fd5b600381106116b1576116b0611671565b5b50565b60008190506116c2826116a0565b919050565b60006116d2826116b4565b9050919050565b6116e2816116c7565b82525050565b600060e0820190506116fd600083018a611194565b61170a60208301896115fe565b818103604083015261171c8188611518565b905061172b6060830187611194565b61173860808301866116d9565b61174560a0830185611194565b61175260c0830184611194565b98975050505050505050565b7f47696f20626179206b686f6e6720686f70206c65000000000000000000000000600082015250565b60006117946014836114dd565b915061179f8261175e565b602082019050919050565b600060208201905081810360008301526117c381611787565b9050919050565b60006060820190506117df60008301866115fe565b6117ec60208301856115fe565b6117f96040830184611194565b949350505050565b60008115159050919050565b61181681611801565b811461182157600080fd5b50565b6000815190506118338161180d565b92915050565b60006020828403121561184f5761184e6111c8565b5b600061185d84828501611824565b91505092915050565b7f4c6f69207468616e6820746f616e3a2048617920417070726f766520546f6b6560008201527f6e207472756f6300000000000000000000000000000000000000000000000000602082015250565b60006118c26027836114dd565b91506118cd82611866565b604082019050919050565b600060208201905081810360008301526118f1816118b5565b9050919050565b7f4e487b7100000000000000000000000000000000000000000000000000000000600052601160045260246000fd5b60006119328261118a565b91507fffffffffffffffffffffffffffffffffffffffffffffffffffffffffffffffff8203611964576119636118f8565b5b600182019050919050565b7f4e487b7100000000000000000000000000000000000000000000000000000000600052602260045260246000fd5b600060028204905060018216806119b657607f821691505b6020821081036119c9576119c861196f565b5b50919050565b60008190508160005260206000209050919050565b60006020601f8301049050919050565b600082821b905092915050565b600060088302611a317fffffffffffffffffffffffffffffffffffffffffffffffffffffffffffffffff826119f4565b611a3b86836119f4565b95508019841693508086168417925050509392505050565b6000611a6e611a69611a648461118a565b6113c0565b61118a565b9050919050565b6000819050919050565b611a8883611a53565b611a9c611a9482611a75565b848454611a01565b825550505050565b600090565b611ab1611aa4565b611abc818484611a7f565b505050565b5b81811015611ae057611ad5600082611aa9565b600181019050611ac2565b5050565b601f821115611b2557611af6816119cf565b611aff846119e4565b81016020851015611b0e578190505b611b22611b1a856119e4565b830182611ac1565b50505b505050565b600082821c905092915050565b6000611b4860001984600802611b2a565b1980831691505092915050565b6000611b618383611b37565b9150826002028217905092915050565b611b7a826114d2565b67ffffffffffffffff811115611b9357611b926111ed565b5b611b9d825461199e565b611ba8828285611ae4565b600060209050601f831160018114611bdb5760008415611bc9578287015190505b611bd38582611b55565b865550611c3b565b601f198416611be9866119cf565b60005b82811015611c1157848901518255600182019150602085019450602081019050611bec565b86831015611c2e5784890151611c2a601f891682611b37565b8355505b6001600288020188555050505b505050505050565b6000606082019050611c586000830186611194565b611c6560208301856115fe565b8181036040830152611c778184611518565b9050949350505050565b6000604082019050611c9660008301856115fe565b611ca36020830184611194565b9392505050565b7f4c6f6920727574207469656e0000000000000000000000000000000000000000600082015250565b6000611ce0600c836114dd565b9150611ceb82611caa565b602082019050919050565b60006020820190508181036000830152611d0f81611cd3565b9050919050565b7f446f6e206461207875206c7920786f6e67000000000000000000000000000000600082015250565b6000611d4c6011836114dd565b9150611d5782611d16565b602082019050919050565b60006020820190508181036000830152611d7b81611d3f565b9050919050565b600081905092915050565b60008154611d9a8161199e565b611da48186611d82565b94506001821660008114611dbf5760018114611dd457611e07565b60ff1983168652811515820286019350611e07565b611ddd856119cf565b60005b83811015611dff57815481890152600182019150602081019050611de0565b838801955050505b50505092915050565b6000611e1c8284611d8d565b915081905092915050565b7f4368756120636f2067696f2068612063616e6800000000000000000000000000600082015250565b6000611e5d6013836114dd565b9150611e6882611e27565b602082019050919050565b60006020820190508181036000830152611e8c81611e50565b9050919050565b6000611e9e8261118a565b9150611ea98361118a565b9250828203905081811115611ec157611ec06118f8565b5b92915050565b600081519050611ed681611318565b92915050565b600060208284031215611ef257611ef16111c8565b5b6000611f0084828501611ec7565b91505092915050565b7f5175792062616f206869656d2074616d20686574207469656e00000000000000600082015250565b6000611f3f6019836114dd565b9150611f4a82611f09565b602082019050919050565b60006020820190508181036000830152611f6e81611f32565b9050919050565b7f4c6f692063687579656e206b686f616e2064656e206275000000000000000000600082015250565b6000611fab6017836114dd565b9150611fb682611f75565b602082019050919050565b60006020820190508181036000830152611fda81611f9e565b9050919050565b7f5041494400000000000000000000000000000000000000000000000000000000600082015250565b60006120176004836114dd565b915061202282611fe1565b602082019050919050565b60006060820190506120426000830185611194565b81810360208301526120538161200a565b90506120626040830184611194565b9392505050565b7f52454a4543544544000000000000000000000000000000000000000000000000600082015250565b600061209f6008836114dd565b91506120aa82612069565b602082019050919050565b6000819050919050565b60006120da6120d56120d0846120b5565b6113c0565b61118a565b9050919050565b6120ea816120bf565b82525050565b60006060820190506121056000830185611194565b818103602083015261211681612092565b905061212560408301846120e1565b9392505050565b6000612137826114d2565b6121418185611d82565b93506121518185602086016114ee565b80840191505092915050565b6000612169828461212c565b91508190509291505056fea26469706673582212208599c03bbdf5ca87d812d124c68324f36de2d0ea4a27c60091bbf5ee46b872bb64736f6c63430008140033",
  "linkReferences": {},
  "deployedLinkReferences": {}
}