{
  "_format": "hh-sol-artifact-1",
  "contractName": "FlightInsurance",
  "sourceName": "contracts/FlightInsurance.sol",
  "abi": [
    {
      "inputs": [
        {
          "internalType": "address",
          "name": "_tokenAddress",
          "type": "address"
        }
      ],
      "stateMutability": "nonpayable",
      "type": "constructor"
    },
    {
      "inputs": [
        {
          "internalType": "address",
          "name": "owner",
          "type": "address"
        }
      ],
      "name": "OwnableInvalidOwner",
      "type": "error"
    },
    {
      "inputs": [
        {
          "internalType": "address",
          "name": "account",
          "type": "address"
        }
      ],
      "name": "OwnableUnauthorizedAccount",
      "type": "error"
    },
    {
      "inputs": [],
      "name": "ReentrancyGuardReentrantCall",
      "type": "error"
    },
    {
      "anonymous": false,
      "inputs": [
        {
          "indexed": false,
          "internalType": "uint256",
          "name": "policyId",
          "type": "uint256"
        },
        {
          "indexed": false,
          "internalType": "string",
          "name": "status",
          "type": "string"
        },
        {
          "indexed": false,
          "internalType": "uint256",
          "name": "amount",
          "type": "uint256"
        }
      ],
      "name": "ClaimProcessed",
      "type": "event"
    },
    {
      "anonymous": false,
      "inputs": [
        {
          "indexed": false,
          "internalType": "string",
          "name": "newCid",
          "type": "string"
        }
      ],
      "name": "DataUpdated",
      "type": "event"
    },
    {
      "anonymous": false,
      "inputs": [
        {
          "indexed": true,
          "internalType": "address",
          "name": "previousOwner",
          "type": "address"
        },
        {
          "indexed": true,
          "internalType": "address",
          "name": "newOwner",
          "type": "address"
        }
      ],
      "name": "OwnershipTransferred",
      "type": "event"
    },
    {
      "anonymous": false,
      "inputs": [
        {
          "indexed": false,
          "internalType": "uint256",
          "name": "policyId",
          "type": "uint256"
        },
        {
          "indexed": false,
          "internalType": "address",
          "name": "customer",
          "type": "address"
        },
        {
          "indexed": false,
          "internalType": "string",
          "name": "flightCode",
          "type": "string"
        }
      ],
      "name": "PolicyPurchased",
      "type": "event"
    },
    {
      "inputs": [],
      "name": "DELAY_THRESHOLD",
      "outputs": [
        {
          "internalType": "uint256",
          "name": "",
          "type": "uint256"
        }
      ],
      "stateMutability": "view",
      "type": "function"
    },
    {
      "inputs": [],
      "name": "PAYOUT_AMOUNT",
      "outputs": [
        {
          "internalType": "uint256",
          "name": "",
          "type": "uint256"
        }
      ],
      "stateMutability": "view",
      "type": "function"
    },
    {
      "inputs": [],
      "name": "PURCHASE_DEADLINE",
      "outputs": [
        {
          "internalType": "uint256",
          "name": "",
          "type": "uint256"
        }
      ],
      "stateMutability": "view",
      "type": "function"
    },
    {
      "inputs": [],
      "name": "TICKET_PRICE",
      "outputs": [
        {
          "internalType": "uint256",
          "name": "",
          "type": "uint256"
        }
      ],
      "stateMutability": "view",
      "type": "function"
    },
    {
      "inputs": [
        {
          "internalType": "string",
          "name": "_flightCode",
          "type": "string"
        },
        {
          "internalType": "uint256",
          "name": "_scheduledDeparture",
          "type": "uint256"
        }
      ],
      "name": "buyInsurance",
      "outputs": [],
      "stateMutability": "nonpayable",
      "type": "function"
    },
    {
      "inputs": [
        {
          "internalType": "string",
          "name": "",
          "type": "string"
        }
      ],
      "name": "flightActualDepartures",
      "outputs": [
        {
          "internalType": "uint256",
          "name": "",
          "type": "uint256"
        }
      ],
      "stateMutability": "view",
      "type": "function"
    },
    {
      "inputs": [],
      "name": "latestDataCID",
      "outputs": [
        {
          "internalType": "string",
          "name": "",
          "type": "string"
        }
      ],
      "stateMutability": "view",
      "type": "function"
    },
    {
      "inputs": [],
      "name": "nextPolicyId",
      "outputs": [
        {
          "internalType": "uint256",
          "name": "",
          "type": "uint256"
        }
      ],
      "stateMutability": "view",
      "type": "function"
    },
    {
      "inputs": [],
      "name": "owner",
      "outputs": [
        {
          "internalType": "address",
          "name": "",
          "type": "address"
        }
      ],
      "stateMutability": "view",
      "type": "function"
    },
    {
      "inputs": [],
      "name": "paymentToken",
      "outputs": [
        {
          "internalType": "contract IERC20",
          "name": "",
          "type": "address"
        }
      ],
      "stateMutability": "view",
      "type": "function"
    },
    {
      "inputs": [
        {
          "internalType": "uint256",
          "name": "",
          "type": "uint256"
        }
      ],
      "name": "policies",
      "outputs": [
        {
          "internalType": "uint256",
          "name": "claimId",
          "type": "uint256"
        },
        {
          "internalType": "address",
          "name": "customer",
          "type": "address"
        },
        {
          "internalType": "string",
          "name": "flightCode",
          "type": "string"
        },
        {
          "internalType": "uint256",
          "name": "scheduledDeparture",
          "type": "uint256"
        },
        {
          "internalType": "enum FlightInsurance.Status",
          "name": "status",
          "type": "uint8"
        },
        {
          "internalType": "uint256",
          "name": "claimTime",
          "type": "uint256"
        },
        {
          "internalType": "uint256",
          "name": "payoutAmount",
          "type": "uint256"
        }
      ],
      "stateMutability": "view",
      "type": "function"
    },
    {
      "inputs": [
        {
          "internalType": "uint256",
          "name": "_policyId",
          "type": "uint256"
        }
      ],
      "name": "processClaim",
      "outputs": [],
      "stateMutability": "nonpayable",
      "type": "function"
    },
    {
      "inputs": [],
      "name": "renounceOwnership",
      "outputs": [],
      "stateMutability": "nonpayable",
      "type": "function"
    },
    {
      "inputs": [
        {
          "internalType": "address",
          "name": "newOwner",
          "type": "address"
        }
      ],
      "name": "transferOwnership",
      "outputs": [],
      "stateMutability": "nonpayable",
      "type": "function"
    },
    {
      "inputs": [
        {
          "internalType": "string",
          "name": "_newCid",
          "type": "string"
        }
      ],
      "name": "updateDataCID",
      "outputs": [],
      "stateMutability": "nonpayable",
      "type": "function"
    },
    {
      "inputs": [
        {
          "internalType": "string",
          "name": "_flightCode",
          "type": "string"
        },
        {
          "internalType": "uint256",
          "name": "_actualDeparture",
          "type": "uint256"
        },
        {
          "internalType": "string",
          "name": "_newCid",
          "type": "string"
        }
      ],
      "name": "updateFlightStatus",
      "outputs": [],
      "stateMutability": "nonpayable",
      "type": "function"
    },
    {
      "inputs": [
        {
          "internalType": "uint256",
          "name": "amount",
          "type": "uint256"
        }
      ],
      "name": "withdrawTokens",
      "outputs": [],
      "stateMutability": "nonpayable",
      "type": "function"
    }
  ],
  "bytecode": "0x60806040523480156200001157600080fd5b50604051620022b6380380620022b683398181016040528101906200003791906200023c565b33600073ffffffffffffffffffffffffffffffffffffffff168173ffffffffffffffffffffffffffffffffffffffff1603620000ad5760006040517f1e4fbdf7000000000000000000000000000000000000000000000000000000008152600401620000a491906200027f565b60405180910390fd5b620000be816200010e60201b60201c565b506001808190555080600260006101000a81548173ffffffffffffffffffffffffffffffffffffffff021916908373ffffffffffffffffffffffffffffffffffffffff160217905550506200029c565b60008060009054906101000a900473ffffffffffffffffffffffffffffffffffffffff169050816000806101000a81548173ffffffffffffffffffffffffffffffffffffffff021916908373ffffffffffffffffffffffffffffffffffffffff1602179055508173ffffffffffffffffffffffffffffffffffffffff168173ffffffffffffffffffffffffffffffffffffffff167f8be0079c531659141344cd1fd0a4f28419497f9722a3daafe3b4186f6b6457e060405160405180910390a35050565b600080fd5b600073ffffffffffffffffffffffffffffffffffffffff82169050919050565b60006200020482620001d7565b9050919050565b6200021681620001f7565b81146200022257600080fd5b50565b60008151905062000236816200020b565b92915050565b600060208284031215620002555762000254620001d2565b5b6000620002658482850162000225565b91505092915050565b6200027981620001f7565b82525050565b60006020820190506200029660008301846200026e565b92915050565b61200a80620002ac6000396000f3fe608060405234801561001057600080fd5b506004361061010b5760003560e01c8063887feb57116100a2578063c27b30ea11610071578063c27b30ea1461025a578063cad0b8db14610278578063d3e8948314610296578063e541040f146102cc578063f2fde38b146102fc5761010b565b8063887feb57146101e65780638da5cb5b14610202578063aed0acee14610220578063b2469a601461023e5761010b565b80633013ce29116100de5780633013ce2914610186578063315a095d146101a4578063715018a6146101c05780637257dfc9146101ca5761010b565b80630386a7e0146101105780630cf922d51461012e57806315a6753e1461014a5780631a95f15f14610168575b600080fd5b610118610318565b6040516101259190611003565b60405180910390f35b610148600480360381019061014391906111a4565b61031e565b005b6101526105dc565b60405161015f9190611003565b60405180910390f35b6101706105e3565b60405161017d9190611003565b60405180910390f35b61018e6105e9565b60405161019b919061127f565b60405180910390f35b6101be60048036038101906101b9919061129a565b61060f565b005b6101c86106f9565b005b6101e460048036038101906101df919061129a565b61070d565b005b61020060048036038101906101fb91906112c7565b610b11565b005b61020a610b88565b6040516102179190611373565b60405180910390f35b610228610bb1565b6040516102359190611003565b60405180910390f35b6102586004803603810190610253919061138e565b610bb7565b005b610262610c09565b60405161026f9190611456565b60405180910390f35b610280610c97565b60405161028d9190611003565b60405180910390f35b6102b060048036038101906102ab919061129a565b610c9d565b6040516102c397969594939291906114ef565b60405180910390f35b6102e660048036038101906102e1919061138e565b610d94565b6040516102f39190611003565b60405180910390f35b61031660048036038101906103119190611591565b610dc2565b005b6122b881565b610326610e48565b428111610368576040517f08c379a000000000000000000000000000000000000000000000000000000000815260040161035f9061160a565b60405180910390fd5b6000600260009054906101000a900473ffffffffffffffffffffffffffffffffffffffff1673ffffffffffffffffffffffffffffffffffffffff166323b872dd33306103e86040518463ffffffff1660e01b81526004016103cb9392919061162a565b6020604051808303816000875af11580156103ea573d6000803e3d6000fd5b505050506040513d601f19601f8201168201806040525081019061040e9190611699565b905080610450576040517f08c379a000000000000000000000000000000000000000000000000000000000815260040161044790611738565b60405180910390fd5b60006003600081548092919061046590611787565b9190505590506040518060e001604052808281526020013373ffffffffffffffffffffffffffffffffffffffff168152602001858152602001848152602001600060028111156104b8576104b7611478565b5b81526020014281526020016000815250600560008381526020019081526020016000206000820151816000015560208201518160010160006101000a81548173ffffffffffffffffffffffffffffffffffffffff021916908373ffffffffffffffffffffffffffffffffffffffff160217905550604082015181600201908161054191906119d1565b506060820151816003015560808201518160040160006101000a81548160ff0219169083600281111561057757610576611478565b5b021790555060a0820151816005015560c082015181600601559050507fd37253fbd5cf94a2af2359b0e0de020f4dbd07b17b05c41b307eed4681488cae8133866040516105c693929190611aa3565b60405180910390a150506105d8610e8e565b5050565b6202a30081565b6103e881565b600260009054906101000a900473ffffffffffffffffffffffffffffffffffffffff1681565b610617610e97565b600260009054906101000a900473ffffffffffffffffffffffffffffffffffffffff1673ffffffffffffffffffffffffffffffffffffffff1663a9059cbb33836040518363ffffffff1660e01b8152600401610674929190611ae1565b6020604051808303816000875af1158015610693573d6000803e3d6000fd5b505050506040513d601f19601f820116820180604052508101906106b79190611699565b6106f6576040517f08c379a00000000000000000000000000000000000000000000000000000000081526004016106ed90611b56565b60405180910390fd5b50565b610701610e97565b61070b6000610f1e565b565b610715610e48565b6000600560008381526020019081526020016000209050600060028111156107405761073f611478565b5b8160040160009054906101000a900460ff16600281111561076457610763611478565b5b146107a4576040517f08c379a000000000000000000000000000000000000000000000000000000000815260040161079b90611bc2565b60405180910390fd5b60006006826002016040516107b99190611c70565b90815260200160405180910390205490506000811161080d576040517f08c379a000000000000000000000000000000000000000000000000000000000815260040161080490611cd3565b60405180910390fd5b8160030154811180156108305750611c2082600301548261082e9190611cf3565b115b15610a92576122b8600260009054906101000a900473ffffffffffffffffffffffffffffffffffffffff1673ffffffffffffffffffffffffffffffffffffffff166370a08231306040518263ffffffff1660e01b81526004016108939190611373565b602060405180830381865afa1580156108b0573d6000803e3d6000fd5b505050506040513d601f19601f820116820180604052508101906108d49190611d3c565b1015610915576040517f08c379a000000000000000000000000000000000000000000000000000000000815260040161090c90611db5565b60405180910390fd5b60028260040160006101000a81548160ff0219169083600281111561093d5761093c611478565b5b02179055506122b88260060181905550600260009054906101000a900473ffffffffffffffffffffffffffffffffffffffff1673ffffffffffffffffffffffffffffffffffffffff1663a9059cbb8360010160009054906101000a900473ffffffffffffffffffffffffffffffffffffffff166122b86040518363ffffffff1660e01b81526004016109d0929190611ae1565b6020604051808303816000875af11580156109ef573d6000803e3d6000fd5b505050506040513d601f19601f82011682018060405250810190610a139190611699565b610a52576040517f08c379a0000000000000000000000000000000000000000000000000000000008152600401610a4990611e21565b60405180910390fd5b7fed0f0261353205367c85bba1480f6766d06afbc6de6a29252d0a089891aedf2f836122b8604051610a85929190611e8d565b60405180910390a1610b04565b60018260040160006101000a81548160ff02191690836002811115610aba57610ab9611478565b5b0217905550600082600601819055507fed0f0261353205367c85bba1480f6766d06afbc6de6a29252d0a089891aedf2f836000604051610afb929190611f50565b60405180910390a15b5050610b0e610e8e565b50565b610b19610e97565b81600684604051610b2a9190611fbd565b9081526020016040518091039020819055508060049081610b4b91906119d1565b507f70a1cfe867989ce2ae7d36e8dfa2d3f6ad43678fe220e15a59c1d503092f941381604051610b7b9190611456565b60405180910390a1505050565b60008060009054906101000a900473ffffffffffffffffffffffffffffffffffffffff16905090565b611c2081565b610bbf610e97565b8060049081610bce91906119d1565b507f70a1cfe867989ce2ae7d36e8dfa2d3f6ad43678fe220e15a59c1d503092f941381604051610bfe9190611456565b60405180910390a150565b60048054610c16906117fe565b80601f0160208091040260200160405190810160405280929190818152602001828054610c42906117fe565b8015610c8f5780601f10610c6457610100808354040283529160200191610c8f565b820191906000526020600020905b815481529060010190602001808311610c7257829003601f168201915b505050505081565b60035481565b60056020528060005260406000206000915090508060000154908060010160009054906101000a900473ffffffffffffffffffffffffffffffffffffffff1690806002018054610cec906117fe565b80601f0160208091040260200160405190810160405280929190818152602001828054610d18906117fe565b8015610d655780601f10610d3a57610100808354040283529160200191610d65565b820191906000526020600020905b815481529060010190602001808311610d4857829003601f168201915b5050505050908060030154908060040160009054906101000a900460ff16908060050154908060060154905087565b6006818051602081018201805184825260208301602085012081835280955050505050506000915090505481565b610dca610e97565b600073ffffffffffffffffffffffffffffffffffffffff168173ffffffffffffffffffffffffffffffffffffffff1603610e3c5760006040517f1e4fbdf7000000000000000000000000000000000000000000000000000000008152600401610e339190611373565b60405180910390fd5b610e4581610f1e565b50565b600260015403610e84576040517f3ee5aeb500000000000000000000000000000000000000000000000000000000815260040160405180910390fd5b6002600181905550565b60018081905550565b610e9f610fe2565b73ffffffffffffffffffffffffffffffffffffffff16610ebd610b88565b73ffffffffffffffffffffffffffffffffffffffff1614610f1c57610ee0610fe2565b6040517f118cdaa7000000000000000000000000000000000000000000000000000000008152600401610f139190611373565b60405180910390fd5b565b60008060009054906101000a900473ffffffffffffffffffffffffffffffffffffffff169050816000806101000a81548173ffffffffffffffffffffffffffffffffffffffff021916908373ffffffffffffffffffffffffffffffffffffffff1602179055508173ffffffffffffffffffffffffffffffffffffffff168173ffffffffffffffffffffffffffffffffffffffff167f8be0079c531659141344cd1fd0a4f28419497f9722a3daafe3b4186f6b6457e060405160405180910390a35050565b600033905090565b6000819050919050565b610ffd81610fea565b82525050565b60006020820190506110186000830184610ff4565b92915050565b6000604051905090565b600080fd5b600080fd5b600080fd5b600080fd5b6000601f19601f8301169050919050565b7f4e487b7100000000000000000000000000000000000000000000000000000000600052604160045260246000fd5b6110858261103c565b810181811067ffffffffffffffff821117156110a4576110a361104d565b5b80604052505050565b60006110b761101e565b90506110c3828261107c565b919050565b600067ffffffffffffffff8211156110e3576110e261104d565b5b6110ec8261103c565b9050602081019050919050565b82818337600083830152505050565b600061111b611116846110c8565b6110ad565b90508281526020810184848401111561113757611136611037565b5b6111428482856110f9565b509392505050565b600082601f83011261115f5761115e611032565b5b813561116f848260208601611108565b91505092915050565b61118181610fea565b811461118c57600080fd5b50565b60008135905061119e81611178565b92915050565b600080604083850312156111bb576111ba611028565b5b600083013567ffffffffffffffff8111156111d9576111d861102d565b5b6111e58582860161114a565b92505060206111f68582860161118f565b9150509250929050565b600073ffffffffffffffffffffffffffffffffffffffff82169050919050565b6000819050919050565b600061124561124061123b84611200565b611220565b611200565b9050919050565b60006112578261122a565b9050919050565b60006112698261124c565b9050919050565b6112798161125e565b82525050565b60006020820190506112946000830184611270565b92915050565b6000602082840312156112b0576112af611028565b5b60006112be8482850161118f565b91505092915050565b6000806000606084860312156112e0576112df611028565b5b600084013567ffffffffffffffff8111156112fe576112fd61102d565b5b61130a8682870161114a565b935050602061131b8682870161118f565b925050604084013567ffffffffffffffff81111561133c5761133b61102d565b5b6113488682870161114a565b9150509250925092565b600061135d82611200565b9050919050565b61136d81611352565b82525050565b60006020820190506113886000830184611364565b92915050565b6000602082840312156113a4576113a3611028565b5b600082013567ffffffffffffffff8111156113c2576113c161102d565b5b6113ce8482850161114a565b91505092915050565b600081519050919050565b600082825260208201905092915050565b60005b838110156114115780820151818401526020810190506113f6565b60008484015250505050565b6000611428826113d7565b61143281856113e2565b93506114428185602086016113f3565b61144b8161103c565b840191505092915050565b60006020820190508181036000830152611470818461141d565b905092915050565b7f4e487b7100000000000000000000000000000000000000000000000000000000600052602160045260246000fd5b600381106114b8576114b7611478565b5b50565b60008190506114c9826114a7565b919050565b60006114d9826114bb565b9050919050565b6114e9816114ce565b82525050565b600060e082019050611504600083018a610ff4565b6115116020830189611364565b8181036040830152611523818861141d565b90506115326060830187610ff4565b61153f60808301866114e0565b61154c60a0830185610ff4565b61155960c0830184610ff4565b98975050505050505050565b61156e81611352565b811461157957600080fd5b50565b60008135905061158b81611565565b92915050565b6000602082840312156115a7576115a6611028565b5b60006115b58482850161157c565b91505092915050565b7f47696f20626179206b686f6e6720686f70206c65000000000000000000000000600082015250565b60006115f46014836113e2565b91506115ff826115be565b602082019050919050565b60006020820190508181036000830152611623816115e7565b9050919050565b600060608201905061163f6000830186611364565b61164c6020830185611364565b6116596040830184610ff4565b949350505050565b60008115159050919050565b61167681611661565b811461168157600080fd5b50565b6000815190506116938161166d565b92915050565b6000602082840312156116af576116ae611028565b5b60006116bd84828501611684565b91505092915050565b7f4c6f69207468616e6820746f616e3a2048617920417070726f766520546f6b6560008201527f6e207472756f6300000000000000000000000000000000000000000000000000602082015250565b60006117226027836113e2565b915061172d826116c6565b604082019050919050565b6000602082019050818103600083015261175181611715565b9050919050565b7f4e487b7100000000000000000000000000000000000000000000000000000000600052601160045260246000fd5b600061179282610fea565b91507fffffffffffffffffffffffffffffffffffffffffffffffffffffffffffffffff82036117c4576117c3611758565b5b600182019050919050565b7f4e487b7100000000000000000000000000000000000000000000000000000000600052602260045260246000fd5b6000600282049050600182168061181657607f821691505b602082108103611829576118286117cf565b5b50919050565b60008190508160005260206000209050919050565b60006020601f8301049050919050565b600082821b905092915050565b6000600883026118917fffffffffffffffffffffffffffffffffffffffffffffffffffffffffffffffff82611854565b61189b8683611854565b95508019841693508086168417925050509392505050565b60006118ce6118c96118c484610fea565b611220565b610fea565b9050919050565b6000819050919050565b6118e8836118b3565b6118fc6118f4826118d5565b848454611861565b825550505050565b600090565b611911611904565b61191c8184846118df565b505050565b5b8181101561194057611935600082611909565b600181019050611922565b5050565b601f821115611985576119568161182f565b61195f84611844565b8101602085101561196e578190505b61198261197a85611844565b830182611921565b50505b505050565b600082821c905092915050565b60006119a86000198460080261198a565b1980831691505092915050565b60006119c18383611997565b9150826002028217905092915050565b6119da826113d7565b67ffffffffffffffff8111156119f3576119f261104d565b5b6119fd82546117fe565b611a08828285611944565b600060209050601f831160018114611a3b5760008415611a29578287015190505b611a3385826119b5565b865550611a9b565b601f198416611a498661182f565b60005b82811015611a7157848901518255600182019150602085019450602081019050611a4c565b86831015611a8e5784890151611a8a601f891682611997565b8355505b6001600288020188555050505b505050505050565b6000606082019050611ab86000830186610ff4565b611ac56020830185611364565b8181036040830152611ad7818461141d565b9050949350505050565b6000604082019050611af66000830185611364565b611b036020830184610ff4565b9392505050565b7f4c6f6920727574207469656e0000000000000000000000000000000000000000600082015250565b6000611b40600c836113e2565b9150611b4b82611b0a565b602082019050919050565b60006020820190508181036000830152611b6f81611b33565b9050919050565b7f446f6e206461207875206c7920786f6e67000000000000000000000000000000600082015250565b6000611bac6011836113e2565b9150611bb782611b76565b602082019050919050565b60006020820190508181036000830152611bdb81611b9f565b9050919050565b600081905092915050565b60008154611bfa816117fe565b611c048186611be2565b94506001821660008114611c1f5760018114611c3457611c67565b60ff1983168652811515820286019350611c67565b611c3d8561182f565b60005b83811015611c5f57815481890152600182019150602081019050611c40565b838801955050505b50505092915050565b6000611c7c8284611bed565b915081905092915050565b7f4368756120636f2067696f2068612063616e6800000000000000000000000000600082015250565b6000611cbd6013836113e2565b9150611cc882611c87565b602082019050919050565b60006020820190508181036000830152611cec81611cb0565b9050919050565b6000611cfe82610fea565b9150611d0983610fea565b9250828203905081811115611d2157611d20611758565b5b92915050565b600081519050611d3681611178565b92915050565b600060208284031215611d5257611d51611028565b5b6000611d6084828501611d27565b91505092915050565b7f5175792062616f206869656d2074616d20686574207469656e00000000000000600082015250565b6000611d9f6019836113e2565b9150611daa82611d69565b602082019050919050565b60006020820190508181036000830152611dce81611d92565b9050919050565b7f4c6f692063687579656e206b686f616e2064656e206275000000000000000000600082015250565b6000611e0b6017836113e2565b9150611e1682611dd5565b602082019050919050565b60006020820190508181036000830152611e3a81611dfe565b9050919050565b7f5041494400000000000000000000000000000000000000000000000000000000600082015250565b6000611e776004836113e2565b9150611e8282611e41565b602082019050919050565b6000606082019050611ea26000830185610ff4565b8181036020830152611eb381611e6a565b9050611ec26040830184610ff4565b9392505050565b7f52454a4543544544000000000000000000000000000000000000000000000000600082015250565b6000611eff6008836113e2565b9150611f0a82611ec9565b602082019050919050565b6000819050919050565b6000611f3a611f35611f3084611f15565b611220565b610fea565b9050919050565b611f4a81611f1f565b82525050565b6000606082019050611f656000830185610ff4565b8181036020830152611f7681611ef2565b9050611f856040830184611f41565b9392505050565b6000611f97826113d7565b611fa18185611be2565b9350611fb18185602086016113f3565b80840191505092915050565b6000611fc98284611f8c565b91508190509291505056fea26469706673582212209cc50ed2838e0bf8050b8688f80a38dcd68beb75558c7bf4951e29640269952c64736f6c63430008140033",
  "linkReferences": {},
  "deployedLinkReferences": {}
}